:100000000C942A000C9434000C9434000C943400AA
:100010000C9434000C9434000C9434000C94340090
:100020000C9434000C9434000C9434000C94340080
:100030000C9434000C9434000C9434000C94340070
:100040000C9434000C9434000C9434000C94340060
:100050000C94340011241FBECFE5D8E0DEBFCDBF25
:100060000E9436000C9453000C94000011BA81E0F9
:1000700084BB80B3847080BB811112C087EA91E693
:100080000197F1F700C0000080B3847080BB81113C
:1000900004C085B3826085BB03C085B38E7F85BBFA
:0A00A00080E090E00895F894FFCF8F
:00000001FF
