:100000000C942A000C9447000C9447000C94470071
:100010000C9447000C9447000C9447000C94470044
:100020000C9447000C9447000C9447000C94470034
:100030000C9447000C9447000C9447000C94470024
:100040000C9447000C9447000C9447000C94470014
:100050000C94470011241FBECFE5D8E0DEBFCDBF12
:1000600010E0A0E6B0E0EAECF5E102C005900D92E8
:10007000A63FB107D9F721E0A6EFB0E001C01D927D
:10008000A131B207E1F70E9471030C94E30A0C94CA
:10009000000060E080E00E945B0381E690E00E9447
:1000A000500260E081E00E945B038DE690E00E94D8
:1000B00050022FEF89E698E1215080409040E1F70F
:1000C00000C000000E9467038EE790E00E9450028B
:1000D0002FEF89E698E1215080409040E1F700C081
:1000E00000000E9467038BE890E00E9450026FEFCF
:1000F0007FEF8FEF9FE70E9465022FEF89E698E17F
:10010000215080409040E1F700C000000E9467034A
:100110008FE890E00E9450022FEF89E698E121508D
:1001200080409040E1F700C000000E9467038BE828
:1001300090E00E94500261E070E080E090E80E9450
:1001400065022FEF89E698E1215080409040E1F769
:1001500000C000000C9467030C9467038CE990E0E6
:100160000E9450022FEF84E39CE021508040904099
:10017000E1F700C000000C946703CF92DF92EF928A
:10018000FF926B017C01C20ED31EE41EF51E8DE3AF
:100190000E946302C701B6010E946502C701B60151
:1001A000FF90EF90DF90CF900895CF92DF92EF9283
:1001B000FF926B017C01C21AD30AE40AF50A8DE3AF
:1001C0000E946302C701B6010E946502C701B60121
:1001D000FF90EF90DF90CF900895CF92DF92EF9253
:1001E000FF926B017C01CA01B901A70196010E942F
:1001F000780A6B017C018DE30E946302C701B6019E
:100200000E946502C701B601FF90EF90DF90CF908A
:100210000895CF92DF92EF92FF920E94880A6901BF
:100220007A018DE30E946302C701B6010E94650254
:10023000C701B601FF90EF90DF90CF900895CF9364
:10024000CCE061E08C2F0E946B08CF5FC031C9F712
:10025000CF910895DF92EF92FF920F931F93CF9368
:10026000DF939AECE92E90E0F92ECCE0DBE660E03B
:100270008C2F0E946B0800E010E082E1D82ED00E97
:100280008D2D0E94E508811115C0F701E00FF11FC7
:10029000D0818FE19EE40197F1F700C000008D2D21
:1002A0000E94E5088823D9F38FE19EE40197F1F7D6
:1002B00000C000000F5F1F4F04301105F1F661E030
:1002C0008C2F0E946B08CF5F94E0E90EF11CC031C7
:1002D00071F68D2FDF91CF911F910F91FF90EF90CD
:1002E000DF900895CF93C82F60E081E00E946B08F3
:1002F0006C2F661F6627661F86E00E946B08C6FB90
:10030000662760F985E00E946B08C5FB662760F9E7
:1003100084E00E946B08C4FB662760F983E00E94BA
:100320006B0861E082E00E946B088FEC97E0019718
:10033000F1F700C0000060E082E00E946B088FECE3
:1003400097E00197F1F700C00000C3FB662760F952
:1003500086E00E946B08C2FB662760F985E00E9478
:100360006B08C1FB662760F984E00E946B086C2F64
:10037000617083E00E946B0861E082E00E946B087C
:100380008FEC97E00197F1F700C0000060E082E099
:100390000E946B088FEC97E00197F1F700C0000016
:1003A000CF910895CF93C82F61E081E00E946B0840
:1003B0006C2F661F6627661F86E00E946B08C6FBCF
:1003C000662760F985E00E946B08C5FB662760F927
:1003D00084E00E946B08C4FB662760F983E00E94FA
:1003E0006B0861E082E00E946B088FEC97E0019758
:1003F000F1F700C0000060E082E00E946B088FEC23
:1004000097E00197F1F700C00000C3FB662760F991
:1004100086E00E946B08C2FB662760F985E00E94B7
:100420006B08C1FB662760F984E00E946B086C2FA3
:10043000617083E00E946B0861E082E00E946B08BB
:100440008FEC97E00197F1F700C0000060E082E0D8
:100450000E946B088FEC97E00197F1F700C0000055
:10046000CF9108952FE788E391E02150804090409C
:10047000E1F700C0000082E00E94720188E20E9461
:1004800072018CE00E94720181E00E9472018FEC87
:1004900097E00197F1F700C0000086E00C9472012C
:1004A0000F931F93CF938C01C0E0F801EC0FF11D67
:1004B0008081882321F00E94D201CF5FF6CFCF91B7
:1004C0001F910F9108950C94D201FF920F931F93E7
:1004D000CF93DF93CDB7DEB72A970FB6F894DEBF80
:1004E0000FBECDBFAB01BC018E010F5F1F4F8AE075
:1004F000F80111928A95E9F7C8010E941F0AF12CB0
:10050000F801EF0DF11D8081882321F00E94D201B6
:10051000F394F6CF80E20E94D2012A960FB6F894A7
:10052000DEBF0FBECDBFDF91CF911F910F91FF9026
:100530000895BF92CF92DF92EF92FF920F931F9395
:10054000CF93DF9300D000D01F92CDB7DEB76B0101
:100550007C012CE1F594E794D794C7942A95D1F7C0
:10056000092F0F709B01AC01E4E155954795379534
:100570002795EA95D1F7E22FEF70ED83282F2F70A2
:1005800029839B01AC01FCE055954795379527954C
:10059000FA95D1F7122F1F70E72FEF70EA839B01B6
:1005A000AC01A4E05595479537952795AA95D1F7C5
:1005B000E22FEF70EB83262F2F702C838DED90E0D0
:1005C0000E94500289E08C1508F464C080E38C0D11
:1005D0000E94D2010A3010F480E303C00A3021F0F7
:1005E00087E3800F0E94D201ED81EA3018F48E2F4C
:1005F000805D05C02D812A3021F0822F895C0E9408
:10060000D20189818A3010F4805D05C0E981EA3029
:1006100021F08E2F895C0E94D2011A3010F480E301
:1006200003C01A3021F087E3810F0E94D2012A8192
:100630002A3018F4822F805D04C08A818A3019F034
:10064000895C0E94D201EB81EA3018F48E2F805D24
:1006500005C02B812A3021F0822F895C0E94D201B3
:100660008C818A3010F4805D05C0EC81EA30A1F005
:100670008E2F895C0F900F900F900F900F90DF914D
:10068000CF911F910F91FF90EF90DF90CF90BF908F
:100690000C94D20187E39BCF0F900F900F900F9097
:1006A0000F90DF91CF911F910F91FF90EF90DF900E
:1006B000CF90BF900895811102C0862F04C0813071
:1006C00029F480E4860F80680C947201089581E01B
:1006D0000E9472018FEC97E00197F1F700C00000D3
:1006E00008950E941C090E9432020E941F010E946C
:1006F0004900C1E012E00E942A01D82F8B36D9F3BD
:1007000080ED8D0F8A3008F062C01092FC0080915D
:10071000600081110DC060E00E945B0380EE90E0FC
:100720000E94500260E080E00E945B031093600032
:1007300080916000823009F05DC38D2F0E946302BA
:100740008091F900813051F41092090110920A0150
:1007500010920B0110920C011092F9008091F6009A
:10076000813051F41092090110920A0110920B018C
:1007700010920C011092F6002091090130910A01AB
:1007800040910B0150910C01AAE0B0E00E94A70A31
:100790002D2F30E0205331096901330FEE08FF0897
:1007A000DC01CB018C0D9D1DAE1DBF1D8093090189
:1007B00090930A01A0930B01B0930C018093010167
:1007C00090930201A0930301B093040113C3DD339E
:1007D00009F06FC48091F8008F5F8093F800C09398
:1007E000F60060E081E00E945B0380EE90E00E94F2
:1007F000500260E081E00E945B0380910001813043
:1008000009F087C08093F7001092F6008091FB00FA
:10081000813009F040C08091050190910601A091BE
:100820000701B09108010097A105B10569F0209179
:100830000101309102014091030150910401211501
:1008400031054105510549F41092090110920A0140
:1008500010920B0110920C01E9C16C017D01662719
:100860007727CB016C197D098E099F0960930501DB
:100870007093060180930701909308010E94ED0098
:100880006093090170930A0180930B0190930C010E
:100890001092FB0035C0811133C060910501709149
:1008A000060180910701909108016115710581058C
:1008B000910569F0209101013091020140910301FD
:1008C00050910401211531054105510579F410922B
:1008D000090110920A0110920B0110920C018DE394
:1008E0000E94630280E30E9463020AC00E94ED003E
:1008F0006093090170930A0180930B0190930C019E
:10090000109200011092FF001092FE001092FD0064
:100910003DC28091FF00813009F041C01092F60085
:100920008093F7008091FB00813021F580910501D3
:1009300090910601A0910701B09108019C01AD01C1
:1009400066277727CB01621B730B840B950B609393
:10095000050170930601809307019093080120918F
:1009600001013091020140910301509104010E9464
:10097000BD0086CF8111C4CF2091010130910201C9
:1009800040910301509104016091050170910601AD
:1009900080910701909108010E94BD00A9CF80912C
:1009A000FE00813009F027C11092F6008093F70015
:1009B0008091FA0080FD5DC08091FB008130E9F5F7
:1009C0008091050190910601A0910701B091080165
:1009D0006C017D0166277727CB016C197D098E0993
:1009E0009F0960930501709306018093070190931E
:1009F0000801C0900101D0900201E0900301F09045
:100A0000040122273327A9012C193D094E095F094A
:100A1000209301013093020140930301509304019C
:100A20000E94BD006093090170930A0180930B013D
:100A300090930C011092FB001CC081111AC02091F0
:100A40000101309102014091030150910401609134
:100A500005017091060180910701909108010E94A3
:100A6000BD006093090170930A0180930B0190937C
:100A70000C018091FA0080FFB1C08091FB008130B1
:100A800009F068C04091050150910601609107018D
:100A9000709108018091010190910201A0910301E0
:100AA000B0910401481759076A077B0771F4109247
:100AB000090110920A0110920B0110920C018DE3B2
:100AC0000E94630280E30E946302609105017091BD
:100AD0000601809107019091080120910101309158
:100AE00002014091030150910401621773078407CA
:100AF000950769F1E091FA00E13081F45095409555
:100B0000309521953F4F4F4F5F4F20930101309318
:100B1000020140930301509304010FC0909580950A
:100B2000709561957F4F8F4F9F4F60930501709334
:100B3000060180930701909308010E94BD00609315
:100B4000090170930A0180930B0190930C0110929C
:100B5000FB0044C0811142C0409105015091060143
:100B6000609107017091080180910101909102014B
:100B7000A0910301B0910401481759076A077B0748
:100B800071F41092090110920A0110920B01109257
:100B90000C018DE30E94630280E30E946302609176
:100BA0000501709106018091070190910801209143
:100BB000010130910201409103015091040162173B
:100BC00073078407950751F00E94D50060930901CF
:100BD00070930A0180930B0190930C011092000115
:100BE0001092FF001092FE001092FD001092F9008A
:100BF0001092FA00CBC08091FD00813009F07AC0DC
:100C00001092F6008093F7008091FB00813009F08C
:100C100042C0609105017091060180910701909199
:100C20000801611571058105910539F48DE30E9474
:100C3000630280E30E9463022BCEC0900101D0903A
:100C40000201E0900301F0900401C114D104E10419
:100C5000F10479F40E94AE00C093FC0010920D01E3
:100C600010920E0110920F01109210011092F800D4
:100C70000FCE22273327A9012C193D094E095F0900
:100C8000209301013093020140930301509304012A
:100C90000E940901F5CD811133CE6091050170915B
:100CA0000601809107019091080161157105810588
:100CB000910509F40CCE209101013091020140917F
:100CC000030150910401211531054105510579F4C5
:100CD0000E94AE00C093FC0010920D0110920E0114
:100CE00010920F01109210011092F80009CE0E948C
:100CF0000901FECD8091F600813009F047C0809156
:100D0000F800813069F58091090190910A01A09164
:100D10000B01B0910C01892B8A2B8B2B99F48091BC
:100D20000D0190910E01A0910F01B0911001892B3E
:100D30008A2B8B2B39F48DE30E94630280E30E949F
:100D4000630224C08DE30E946302609109017091E7
:100D50000A0180910B0190910C010E94650216C05E
:100D60008230A1F46091090170910A0180910B0118
:100D700090910C0160930D0170930E0180930F010F
:100D8000909310010E9499021092F8008091F70050
:100D9000811111C08091090190910A01A0910B016C
:100DA000B0910C0180930D0190930E01A0930F015F
:100DB000B09310011CC08130D1F480910901909151
:100DC0000A01A0910B01B0910C0180930D01909349
:100DD0000E01A0930F01B09310011092090110921F
:100DE0000A0110920B0110920C011092F700109260
:100DF000600081CCDA3209F04EC0809109019091F7
:100E00000A01A0910B01B0910C010097A105B10559
:100E100071F58091FC00811111C080910D019091BC
:100E20000E01A0910F01B0911001809305019093E4
:100E30000601A0930701B09308010CC0813051F462
:100E400010920501109206011092070110920801FC
:100E50001092FC0060E080E00E945B0380EE90E076
:100E60000E94500260E080E00E945B030AC0809311
:100E7000050190930601A0930701B0930801C09368
:100E8000F9008AE20E94630210936000C09300019F
:100E90001092FF0050C0DB3209F052C0809109016E
:100EA00090910A01A0910B01B0910C010097A1054E
:100EB000B10571F58091FC00811111C080910D0187
:100EC00090910E01A0910F01B09110018093050146
:100ED00090930601A0930701B09308010CC08130E4
:100EE00051F4109205011092060110920701109220
:100EF00008011092FC0060E080E00E945B0380EE3D
:100F000090E00E94500260E080E00E945B030AC013
:100F10008093050190930601A0930701B093080107
:100F2000C093F9008BE20E94630210936000C093AB
:100F3000FF00109200011092FE001092FD00DBCB2A
:100F4000DD3209F061C08091090190910A01A09100
:100F50000B01B0910C010097A105B10581F5C0937B
:100F6000FB008091FC00811111C080910D019091D6
:100F70000E01A0910F01B091100180930501909393
:100F80000601A0930701B09308010CC0813051F411
:100F900010920501109206011092070110920801AB
:100FA0001092FC0060E080E00E945B0380EE90E025
:100FB0000E94500260E080E00E945B030AC08093C0
:100FC000050190930601A0930701B0930801C09317
:100FD000F9008DE20E9463028091FA008F5F809396
:100FE000FA00C093FE00109360001092FF00809101
:100FF0000001813019F4C093FB0058C08091FD00BE
:10100000813009F078CBF7CFDF3209F074CB8091D3
:10101000090190910A01A0910B01B0910C01009778
:10102000A105B10571F58091FC00811111C080917D
:101030000D0190910E01A0910F01B09110018093CC
:10104000050190930601A0930701B09308010CC01D
:10105000813051F41092050110920601109207019F
:10106000109208011092FC0060E080E00E945B0397
:1010700080EE90E00E94500260E080E00E945B03FE
:101080000AC08093050190930601A0930701B093D5
:101090000801C093F9008FE20E9463021093600080
:1010A000C093FD00109200011092FF001092FE000C
:1010B00022CBD33609F09ECE0E94AC00C093FC0038
:1010C00010920D0110920E0110920F01109210015A
:1010D0001092F80010CB982F977061113CC08830A7
:1010E00058F44BB321E030E0092E01C0220F0A94DE
:1010F000EAF7209524232BBB28EF280F283058F43B
:1011000048B321E030E0092E01C0220F0A94EAF72B
:101110002095242328BB20EF280F283058F445B30E
:1011200021E030E0092E01C0220F0A94EAF7209551
:10113000242325BB8851883008F046C042B321E003
:1011400030E0B90102C0660F771F9A95E2F7CB0134
:101150008095842338C06130B9F5883050F44BB3A2
:1011600021E030E0092E01C0220F0A94EAF7242B77
:101170002BBB28EF280F283050F448B321E030E093
:10118000092E01C0220F0A94EAF7242B28BB20EF76
:10119000280F283050F445B321E030E0092E01C07B
:1011A000220F0A94EAF7242B25BB8851883060F47B
:1011B00042B321E030E0B90102C0660F771F9A9573
:1011C000E2F7CB01842B82BB0895482F477088300B
:1011D00050F429B330E0042E02C0359527950A94C7
:1011E000E2F7217001C020E098EF980F983048F4A2
:1011F00026B330E0042E02C0359527950A94E2F715
:10120000217090EF980F983048F423B330E0042E0B
:1012100002C0359527950A94E2F7217088518830ED
:1012200048F480B390E002C0959587954A95E2F71F
:10123000282F2170822F0895EAEAF0E068EF70EF1E
:10124000A8EE30E081E090E04191232F277041111A
:101250003FC0383070F4BAB3AC01022E01C0440F65
:101260000A94EAF75B2F542B5ABB5BB34095452396
:101270004BBB683070F4B7B3AC01022E01C0440F11
:101280000A94EAF75B2F542B57BB58B3409545237C
:1012900048BB783070F4B4B3AC01022E01C0440FE7
:1012A0000A94EAF75B2F542B54BB55B34095452362
:1012B00045BBA83008F091C0B1B3AC0101C0440FE8
:1012C0002A95EAF72B2F242B21BB22B3409541C04E
:1012D000413009F040C0383070F4BAB3AC01022E8E
:1012E00001C0440F0A94EAF740955B2F54235ABB80
:1012F0005BB345234BBB683070F4B7B3AC01022E2F
:1013000001C0440F0A94EAF740955B2F542357BB62
:1013100058B3452348BB783070F4B4B3AC01022E07
:1013200001C0440F0A94EAF740955B2F542354BB45
:1013300055B3452345BBA83008F04FC0B1B3AC014D
:1013400001C0440F2A95EAF740952B2F242321BB97
:1013500022B3422341C0423009F03FC0383070F41C
:10136000BAB3AC01022E01C0440F0A94EAF7542F1D
:1013700050955B235ABB5BB3452B4BBB683070F475
:10138000B7B3AC01022E01C0440F0A94EAF7542F00
:1013900050955B2357BB58B3452B48BB783070F44E
:1013A000B4B3AC01022E01C0440F0A94EAF7542FE3
:1013B00050955B2354BB55B3452B45BBA83068F40F
:1013C000B1B3AC0101C0440F2A95EAF7242F209550
:1013D0002B2321BB22B3422B42BB3F5FAF5F7F5F1A
:1013E0006F5F303209F030CF08959C0180E0F90141
:1013F000E80FF11D9081992311F08F5FF8CF0895C8
:10140000CF93DF93EC010E94F50990E0282F291B70
:1014100030E0492F50E04217530774F4DE01A40F67
:10142000B51F4C9121503109FE01E20FF31F2081BD
:101430002C9340839F5FEACFDF91CF910895CF92A5
:10144000DF92EF92FF920F931F93CF93DF93EC0104
:10145000411551056105710529F480E388831986DA
:1014600080E037C077FF09C0709560955095419531
:101470005F4F6F4F7F4F01E001C000E010E08AE056
:10148000C82ED12CE12CF12CCB01BA01A701960179
:101490000E94880ADA01AB01BC01405D5F4F6F4FCB
:1014A0007F4FFE01E10FF11D4083A901BD0181E0E5
:1014B000810F411551056105710511F0182FE4CF19
:1014C000013039F4FE01E80FF11D8DE2808382E0E6
:1014D000810FFE01E80FF11D1082CE01DF91CF9147
:1014E0001F910F91FF90EF90DF90CF900C94000A26
:1014F000DB018F939F930E94A70ABF91AF91A29F98
:10150000800D911DA39F900DB29F900D1124089501
:10151000052E97FB1EF400940E949F0A57FD07D0EA
:101520000E94B20A07FC03D04EF40C949F0A509517
:101530004095309521953F4F4F4F5F4F08959095BF
:101540008095709561957F4F8F4F9F4F08950E94B2
:10155000D40AA59F900DB49F900DA49F800D911D5E
:1015600011240895A1E21A2EAA1BBB1BFD010DC078
:10157000AA1FBB1FEE1FFF1FA217B307E407F50743
:1015800020F0A21BB30BE40BF50B661F771F881F1F
:10159000991F1A9469F760957095809590959B01B5
:1015A000AC01BD01CF010895A29FB001B39FC0015E
:1015B000A39F700D811D1124911DB29F700D811D7F
:0A15C0001124911D0895F894FFCF47
:1015CA000257454C434F4D4520544F2000414C494A
:1015DA0027732043414C434C41544F5220004D4104
:1015EA005820504F532052414E4700203D20004D75
:1015FA004158204E45472052414E470020696E66A9
:10160A00696E69747920203F200000000000000004
:10161A0000000000000000000000000002020202B8
:10162A00000000000202020200003738392F343568
:10163A00362A3132332D63303D2B30620030780048
:10164A002020202020202020202020202020202090
:06165A00202020202000EA
:00000001FF
